:1000000020A80020095000001B50000021500000D3
:100010002D500000275000002D50000033500000EC
:100020002D5000002D5000002D50000061580000A0
:100030002D5000002D500000F15700009155000098
:100040002D5000002D5000002D5000002D500000BC
:100050002D5000002D5000002D5000002D500000AC
:100060002D5000002D5000002D5000002D5000009C
:100070002D5000002D5000002D5000002D5000008C
:100080002D5000002D5000002D5000002D5000007C
:100090002D5000002D5000002D5000002D5000006C
:1000A0002D5000002D5000002D5000002D5000005C
:1000B0002D5000002D5000002D5000002D5000004C
:1000C0002D5000002D5000002D5000002D5000003C
:1000D0002D5000002D5000002D5000002D5000002C
:1000E0002D5000002D5000002D5000002D5000001C
:0C00F0002D5000002D5000002D5000008D
:1001000053B94AB9002908BF00281CBF4FF0FF317E
:100110004FF0FF3000F06CB9ADF1080C6DE904CE82
:1001200000F006F8DDF804E0DDE9022304B07047D2
:100130002DE9F047089D04468846002B7DD18A4270
:1001400017463FD9B2FA82F242B1C2F12000914083
:10015000974024FA00F0944040EA01084FEA174C17
:10016000230C1FFA87FEB8FBFCF60CFB168106FB7E
:100170000EF043EA0143984205D9FB1802D2984297
:1001800000F22481013E191AA3B2B1FBFCF00CFB72
:10019000101100FB0EFE43EA0144A64505D93C19A7
:1001A00002D2A64500F20F81013840EA0640A4EBD6
:1001B0000E0400261DB1D4400023C5E9004331469A
:1001C000BDE8F08702B9FFDEB2FA82F2002A50D110
:1001D000CB1B4FEA174E1FFA87F80126210CB3FB01
:1001E000FEFC0EFB1C300B4608FB0CF941EA0041FB
:1001F00089450AD979182CBF01230023894502D9E2
:10020000002B00F0D9800CF1FF3CA1EB0901A3B257
:10021000B1FBFEF00EFB101108FB00F843EA0144AD
:10022000A04505D93C1902D2A04500F2C980013889
:10023000A4EB080440EA0C40BCE78B4209D9002D2E
:1002400000F0B1800026C5E9000130463146BDE826
:10025000F087B3FA83F6002E46D18B42C0F0A68019
:10026000824240F2A3803046002DA8D0C5E9004864
:10027000A5E79740C2F1200301FA02F04FEA174EBA
:10028000D94024FA03F31FFA87F894400343B1FBE3
:10029000FEF01E0C0EFB101100FB08FC46EA0141AB
:1002A0008C4509D979182CBF012600268C4502D926
:1002B000002E00F093800138A1EB0C019BB2B1FB42
:1002C000FEF60EFB161106FB08FC43EA01418C45C5
:1002D00005D9791802D28C4500F28780013EA1EB46
:1002E0000C0346EA004679E7C6F1200703FA06F454
:1002F00002FA06FC01FA06FEFA4020FA07F8F94075
:1003000000FA06F3224348EA0E044FEA12484FEA85
:10031000144E1FFA82F9B1FBF8FA08FB1A110AFB16
:1003200009F04EEA014E70450AD912EB0E0E2CBFB1
:1003300001210021704501D9002952D00AF1FF3A6C
:10034000AEEB000EA4B2BEFBF8F008FB10EE00FB13
:1003500009F944EA0E4EF14505D912EB0E0E01D211
:10036000F14538D8013840EA0A40AEEB090EA0FB4F
:100370000C89CE4541464C4602D306D1434504D2B2
:100380000138B8EB0C0169EB020415B35A1A6EEB95
:10039000040EF2400EFA07F72EFA06F30026174372
:1003A000C5E900730BE72E46284608E7841A61EB7F
:1003B00003010120884657E7ACF1020C394424E7D9
:1003C00002383C4434E702383C44EEE6023E3B440B
:1003D000D9E62E46F3E602389644C4E7023839449B
:1003E0006AE7AAF1020A9644AAE7023E394476E790
:1003F000704700BF034613F8012B002AFBD1181ADF
:100400000138704780B400AF034B1B681846BD46E7
:100410005DF8047B704700BFCC9B002080B400AF28
:10042000084B1B6800221A71064B1B681B68054AA3
:100430001360044B1B681B791846BD465DF8047BAE
:10044000704700BFCC9B002090B488B000AFF8602C
:10045000B96011461A460B46FB8013467B71FA8839
:1004600079793B8D03F108003B8D08335C4203F042
:10047000030304F0030458BF6342C3F104030344BD
:1004800003FB01F39A4201DA01234AE03B8D083372
:100490005A4203F0030302F0030258BF5342DBB297
:1004A000C3F10403FB76BB687B610023FB6127E09B
:1004B0003B8D03F10802FB7E1344FA6902FB03F350
:1004C0001A467B691344BB60BB6800221A71BA6884
:1004D00053796FF301035371BA6853796FF3830350
:1004E0005371BB683A8DDA80BB6803F10802398D1D
:1004F000FB7E0B441A44BB681A60FB690133FB6145
:100500007B79FA699A42D3DBBB687A691A60FB6827
:100510007A691A60FB6800225A60044A7B6913609A
:10052000002318462037BD4690BC7047CC9B002066
:1005300080B500AF0AF050F9034B1B68024A43F044
:1005400000431360FEE700BF2800095880B582B061
:1005500000AF09F00BFE11490F2007F00DFE104906
:100560000F2007F0AFFD0F2007F0E4FD0F2007F08C
:10057000EDFD0346012B0CBF01230023FB71FB792A
:10058000002B05D0002000F067F8FFF7D1FFEDE762
:10059000002005F079F9FFF7CBFFE7E702800320A1
:1005A000A505000080B483B000AF0346FB7100BF17
:1005B0000C37BD465DF8047B7047000080B58AB0FB
:1005C00000AF00F0A8FB09F0D1FD07F108031846C1
:1005D00004F058FD01237B6001237B6207F10803CF
:1005E000796A184604F062FD38623B6A002B00D03D
:1005F000FEE73A1D07F108031146184604F06DFDA9
:1006000007F108034FF40361184604F080FD024629
:100610003B6A13433B623B6A002B00D0FEE707F1C5
:10062000080107F11C000023074A04F07FFD38622F
:100630003B6A002B00D0FEE701F09CFC002318462B
:100640002837BD4680BD00BF4D05000080B483B093
:1006500000AF78603960FEE72DE9B0439CB002AF8F
:10066000786007F12C03184607F04EFAAB490620D4
:1006700007F082FDA949072007F07EFD0021062032
:1006800007F054FE0021072007F050FE20230093BE
:1006900002235822A249A348FFF7D6FE0346002BA7
:1006A00008D00121062007F041FE0121072007F0B4
:1006B0003DFEFEE79C4B9B4ADA619B4AD37B43F0AD
:1006C0000103D373984AD37B43F00203D373964B51
:1006D0001E221A75944A937B6FF341039373924AD7
:1006E000937B43F0040393738F4A137B6FF30303ED
:1006F00013738D4B8D4A5A608B4A537B022161F3F1
:1007000003035373884B8A4A1A62884B1E22DA739A
:10071000864B884A5A61854A137B072161F303039C
:100720001373824B844A9A6007F12C03834A8449ED
:10073000844807F0F5F90346834A1360824B186832
:100740004FF000024FF00003CDE900230023002208
:100750007E4907F0E3F807F10803184608F0E0FCCB
:100760004FF4E1333B6207F108031946002009F01A
:1007700023F8F865FB6D002B04D10121062007F05A
:10078000D5FDFEE70F2007F0E1FC0346002B0CBF70
:100790000123002387F85B3097F85B30002B40F093
:1007A000B580FFF72FFE78657B6D08333B6500232E
:1007B0001E22396DF86D08F061FF5A48FFF72EFED2
:1007C0004FF000024FF00453C7E918230DE05E4BD1
:1007D00018685F4A4FF00003CDE900235D4B00220B
:1007E000514907F07FF9C7E91801D7E918234FF0FD
:1007F00000004FF0005102EA000403EA010554EA48
:1008000005030CD0D7E918234FF000004FF080719A
:1008100002EA000803EA010958EA0903D7D1D7E937
:100820001823B3F1804F08BF002A22D0D7E918233C
:10083000B3F1804F08BF012A1AD2D7E91823B3F1C8
:10084000005F08BF002A16D0D7E91823B3F1005F74
:1008500008BF012A0CD2D7E91823002B08BF022AAF
:100860000BD0D7E91823B3F1805F08BF002A06D068
:10087000FEE700BF04E000BF02E000BF00E000BFF1
:10088000294B5B889BB2FB64FB6C43F206429342AC
:100890002ED8FB6CB3F5505F14D232E0FB6CA3F59D
:1008A0006053052B2DD801A252F823F00509000052
:1008B0000509000005090000050900000509000000
:1008C00005090000FB6CA3F55053062B19D801A2B3
:1008D00052F823F009090000090900000909000085
:1008E00009090000090900000909000009090000C0
:1008F000FB6C43F60502934203D8FB6CB3F5605FD3
:10090000CCD2FEE700BF3DE700BF3BE700BF00BF22
:1009100018466837BD46BDE8B08300BF00C0002060
:10092000CC08002030090020C8040020B0040020BA
:100930002409002044090020801A060068040020D1
:1009400030040020C8070020C808002098040020B8
:1009500002008000590900002DE9B04384B000AFC7
:10096000F860C7E900230B467B81D7E900234FF4E9
:1009700000004FF0000102EA000803EA010958EA0A
:10098000090325D00021072007F0D0FC062007F03E
:10099000B7FCFFF737FD03461E4A13601D4B1B686B
:1009A0001A7A1D4B1A701B4B1B68083301331B4A04
:1009B00013601A4B1B68184A1278194618480AF037
:1009C00003FF154B1A78174BDA73FFF727FD1CE06E
:1009D000D7E900234FF002004FF0000102EA0004C3
:1009E00003EA010554EA050307D00021072007F0B8
:1009F0009DFC062007F084FC07E00121072007F09A
:100A000095FC0021062007F091FC00BF1037BD4681
:100A1000BDE8B083380900203C09002040090020CF
:100A200044090020B004002080B584B000AFF86015
:100A30000B467A60FB72FB7A7A681946F86800F018
:100A40000AF8FB7A7A681946F86800F011F800BFD6
:100A50001037BD4680BD80B485B000AFF8600B464E
:100A60007A60FB7200BF1437BD465DF8047B7047A7
:100A700080B586B000AFF8600B467A60FB72FB7AF7
:100A800003F00103002B00F090800023FB7500238E
:100A9000BB750021222007F049FC0021032007F04C
:100AA00045FC0021232007F041FCF86807F06AF9B3
:100AB0000346C3F3C073DBB27B757B683B613B6964
:100AC0001B8843F60702934215D043F60702934270
:100AD0001DDC40F60202934202D0B3F5C15F16D18D
:100AE0003B69DB7B03F07F03BB75BB7D002B10D024
:100AF0000123FB750DE03B6993F8243003F07F037D
:100B0000BB75BB7D002B06D00123FB7503E000BF46
:100B100002E000BF00E000BFFB7D002B22D07B7D08
:100B2000012B0FD100223349222007F087FB32220C
:100B30003049032007F082FB2F222E49232007F0A3
:100B40007DFB52E000222B49222007F077FB002298
:100B50002849032007F072FB00222749232007F0D1
:100B60006DFB42E07B7D012B0FD12F2221492220FA
:100B700007F064FB32221F49032007F05FFB0022CD
:100B80001C49232007F05AFB2FE000221A4922209B
:100B900007F054FB00221749032007F04FFB002207
:100BA0001449232007F04AFB1FE0FB7A03F00203FD
:100BB000002B1AD00021222007F0B8FB00210320CF
:100BC00007F0B4FB0021232007F0B0FB0022094905
:100BD000222007F033FB00220649032007F02EFBFA
:100BE00000220449232007F029FB00BF1837BD4627
:100BF00080BD00BF00C0002001C0002080B584B0CF
:100C000000AF0346FB710021262007F08FFB002375
:100C1000FB7319E00021272007F088FBFA79FB7BA2
:100C2000C3F1070342FA03F303F00103194624203A
:100C300007F07CFB0121272007F078FB082009F052
:100C4000D7FDFB7B0133FB73FB7B072BE2D9002134
:100C5000272007F06BFB0121262007F067FB4FF4EC
:100C60002F7009F0C5FD00BF1037BD4680BD0000E4
:100C700080B500AF0A49262007F07EFA0021262021
:100C800007F054FB012009F0B3FD0121262007F0F5
:100C90004DFB4FF40C7009F0ABFD00BF80BD00BFF1
:100CA00001C8002080B582B000AFFFF7E1FF134913
:100CB000262007F061FA1249272007F05DFA104953
:100CC000242007F059FA0F49252007F055FAB923D7
:100CD000FB71FB791846FFF791FF262007F000FA19
:100CE000272007F0FDF9242007F0FAF9252007F066
:100CF000F7F900BF0837BD4680BD00BF01C800201E
:100D000000C800200240002080B400AF00BFBD46F4
:100D10005DF8047B704780B500AF07F09FFC09F0D9
:100D200025FAFFF7BFFFFFF7EFFF00BF80BD80B4DC
:100D300083B000AF78607B6803F108027B685A607B
:100D40007B684FF0FF329A607B6803F108027B6892
:100D5000DA607B6803F108027B681A617B68002215
:100D60001A6000BF0C37BD465DF8047B704780B445
:100D700083B000AF78607B6800221A6100BF0C3737
:100D8000BD465DF8047B704780B485B000AF7860E5
:100D900039607B685B68FB603B68FA685A60FB6897
:100DA0009A683B689A60FB689B683A685A60FB687F
:100DB0003A689A603B687A681A617B681B685A1CBB
:100DC0007B681A6000BF1437BD465DF8047B70472E
:100DD00080B485B000AF786039603B681B68BB6049
:100DE000BB68B3F1FF3F03D17B681B69FB600CE07C
:100DF0007B680833FB6002E0FB685B68FB60FB68B4
:100E00005B681B68BA689A42F6D2FB685A683B680E
:100E10005A603B685B683A689A603B68FA689A6017
:100E2000FB683A685A603B687A681A617B681B689D
:100E30005A1C7B681A6000BF1437BD465DF8047BFE
:100E4000704780B485B000AF78607B681B69FB6039
:100E50007B685B687A6892689A607B689B687A684E
:100E600052685A60FB685B687A689A4203D17B6873
:100E70009A68FB685A607B6800221A61FB681B68ED
:100E80005A1EFB681A60FB681B6818461437BD467B
:100E90005DF8047B704780B584B000AF786039603E
:100EA0000123FB607B68BB60BB68002B02D104F0B0
:100EB00083FCFEE7BB68002B57D0BB68DB6B002BC5
:100EC00053D0BB681A6CBB68DB6B0021A3FB022309
:100ED000002B00D001210B46002B46D104F02CFB47
:100EE000BB681A68BB68DB6BB968096C01FB03F36C
:100EF0001A44BB689A60BB6800229A63BB681A6890
:100F0000BB685A60BB681A68BB68DB6B013BB96899
:100F1000096C01FB03F31A44BB68DA60BB68FF226B
:100F200083F84420BB68FF2283F845203B68002BF0
:100F30000ED1BB681B69002B14D0BB681033184658
:100F400001F020FC0346002B0CD004F0E3FA09E08A
:100F5000BB6810331846FFF7EAFEBB682433184617
:100F6000FFF7E5FE04F0FAFA01E00023FB60FB68FE
:100F7000002B02D104F020FCFEE7FB681846103776
:100F8000BD4680BD80B588B002AFF860B9607A60B8
:100F90003B6000237B613B68002B02D104F00CFC1A
:100FA000FEE7FB68002B28D03B68002B25D07B6830
:100FB000002B02D0BB68002B1FD07B68002B02D116
:100FC000BB68002B19D150233B613B69502B02D0E9
:100FD00004F0F2FBFEE73B693B687B617B69012221
:100FE00083F8462097F820207B69009313467A689F
:100FF000B968F86800F056F805E07B69002B02D16B
:1010000004F0DAFBFEE77B6918461837BD4680BD61
:1010100080B58AB002AFF860B9601346FB71002357
:10102000FB61FB68002B32D00021BA68FB68A3FB90
:101030000223002B00D001210B46002B27D1FB6897
:10104000BA6802FB03F313F1510F20D8FB68BA68AA
:1010500002FB03F3BB61BB695033184602F0E8FAA8
:10106000F861FB69002B18D0FB697B617B69503309
:101070007B61FB69002283F84620FA79FB690093C3
:1010800013467A69B968F86800F00CF805E0FB6966
:10109000002B02D104F090FBFEE7FB6918462037D5
:1010A000BD4680BD80B584B000AFF860B9607A609D
:1010B000FB70BB68002B03D1BB69BA691A6002E000
:1010C000BB697A681A60BB69FA68DA63BB69BA6897
:1010D0001A640121B869FFF7DEFEBB69FA7883F86C
:1010E0004C2000BF1037BD4680BD80B58AB000AF30
:1010F000F860B9607A603B6000237B62FB683B620A
:101100003B6A002B02D104F057FBFEE7BB68002BC3
:1011100003D13B6A1B6C002B01D1012300E00023AB
:10112000002B02D104F048FBFEE73B68022B03D101
:101130003B6ADB6B012B01D1012300E00023002B74
:1011400002D104F039FBFEE701F08EFD0346002BCF
:1011500002D17B68002B01D1012300E00023002B8A
:1011600002D104F029FBFEE704F0E6F93B6A9A6B32
:101170003B6ADB6B9A4202D33B68022B1DD13A6873
:10118000B968386A00F019FBF8613B6A5B6A002BAA
:101190000AD03B6A2433184601F0F4FA0346002BC8
:1011A00007D004F0B7F904E0FB69002B01D004F08C
:1011B000B1F904F0D3F901235CE07B68002B03D183
:1011C00004F0CCF9002355E07B6A002B06D107F12F
:1011D0001403184601F0A6FB01237B6204F0BEF95C
:1011E00000F02CFF04F0A8F93B6A93F844305BB29E
:1011F000B3F1FF3F03D13B6A002283F844203B6AEE
:1012000093F845305BB2B3F1FF3F03D13B6A002254
:1012100083F8452004F0A2F93A1D07F114031146A2
:10122000184601F095FB0346002B1DD1386A00F0EB
:10123000BCFB0346002B11D03B6A10337A68114681
:10124000184601F045FA386A00F047FB00F03CFF11
:101250000346002B88D104F05DF985E7386A00F079
:101260003CFB00F031FF7FE7386A00F036FB00F00E
:101270002BFF002318462837BD4680BD80B588B0B7
:1012800000AF786039607B68BB61BB69002B02D11D
:1012900004F092FAFEE7BB691B6C002B02D004F04D
:1012A0008BFAFEE7BB691B68002B03D1BB699B6807
:1012B000002B01D1012300E00023002B02D104F018
:1012C0007BFAFEE704F078FA7861BB699B6B3B61BF
:1012D000BB69DB6B3A699A4238D2BB6993F84530F7
:1012E000FB733B695A1CBB699A6397F90F30B3F1E2
:1012F000FF3F12D1BB695B6A002B24D0BB6924334A
:10130000184601F03FFA0346002B1CD03B68002B27
:1013100019D03B6801221A6015E000F0D1FFB860D7
:1013200097F90F30BA689A420DD997F90F307F2B91
:1013300002D104F041FAFEE7FB7B0133DBB25AB283
:10134000BB6983F845200123FB6101E00023FB61B9
:10135000786904F03EFAFB6918462037BD4680BD27
:1013600080B58AB000AFF860B9607A6000237B6214
:10137000FB683B623B6A002B02D104F01DFAFEE7DA
:10138000BB68002B03D13B6A1B6C002B01D10123EE
:1013900000E00023002B02D104F00EFAFEE701F07A
:1013A00063FC0346002B02D17B68002B01D1012393
:1013B00000E00023002B02D104F0FEF9FEE704F068
:1013C000BBF83B6A9B6BFB61FB69002B19D0B968CA
:1013D000386A00F05CFAFB695A1E3B6A9A633B6A02
:1013E0001B69002B09D03B6A1033184601F0CAF97B
:1013F0000346002B01D004F08DF804F0AFF8012370
:1014000063E07B68002B03D104F0A8F800235CE0C4
:101410007B6A002B06D107F11403184601F082FA0B
:1014200001237B6204F09AF800F008FE04F084F8CF
:101430003B6A93F844305BB2B3F1FF3F03D13B6AA0
:10144000002283F844203B6A93F845305BB2B3F145
:10145000FF3F03D13B6A002283F8452004F07EF869
:101460003A1D07F114031146184601F071FA0346BC
:10147000002B1DD1386A00F082FA0346002B11D0F0
:101480003B6A24337A681146184601F021F9386A1C
:1014900000F023FA00F018FE0346002B8FD104F071
:1014A00039F88CE7386A00F018FA00F00DFE86E78C
:1014B000386A00F012FA00F007FE386A00F05FFAAE
:1014C0000346002B3FF47BAF002318462837BD4668
:1014D00080BD80B58AB000AF7860396000237B6240
:1014E0007B68FB6100233B62FB69002B02D104F0A7
:1014F00063F9FEE7FB691B6C002B02D004F05CF97A
:10150000FEE701F0B1FB0346002B02D13B68002B44
:1015100001D1012300E00023002B02D104F04CF99B
:10152000FEE704F009F8FB699B6BBB61BB69002B0C
:101530001ED0BB695A1EFB699A63FB691B68002BAE
:1015400004D101F05FFD0246FB699A60FB691B69EB
:10155000002B09D0FB691033184601F013F903463C
:10156000002B01D003F0D6FF03F0F8FF012383E046
:101570003B68002B03D103F0F1FF00237CE07B6A82
:10158000002B06D107F10C03184601F0CBF901231B
:101590007B6203F0E3FF00F051FD03F0CDFFFB6938
:1015A00093F844305BB2B3F1FF3F03D1FB690022F3
:1015B00083F84420FB6993F845305BB2B3F1FF3FF9
:1015C00003D1FB69002283F8452003F0C7FF3A46A8
:1015D00007F10C031146184601F0BAF90346002B37
:1015E0002CD1F86900F0CBF90346002B20D0FB6921
:1015F0001B68002B09D103F09FFFFB699B6818460D
:1016000001F050FB386203F0A9FFFB6924333A680C
:101610001146184601F05CF8F86900F05EF900F038
:1016200053FD0346002B7FF47CAF03F073FF78E794
:10163000F86900F052F900F047FD72E7F86900F030
:101640004CF900F041FDF86900F099F90346002BD0
:101650003FF467AF3B6A002B0DD003F06DFFF869D4
:1016600000F093F87861FB699B687969184601F08E
:101670002FFC03F073FF002318462837BD4680BDBA
:1016800080B58AB000AFF860B9607A60FB683B62F1
:101690003B6A002B02D104F08FF8FEE7BB68002BF9
:1016A00003D13B6A1B6C002B01D1012300E0002316
:1016B000002B02D104F080F8FEE704F07DF8F86119
:1016C0003B6A9B6BBB61BB69002B3CD03B6A93F8C8
:1016D0004430FB75B968386A00F0D9F8BB695A1E06
:1016E0003B6A9A6397F91730B3F1FF3F12D13B6A17
:1016F0001B69002B24D03B6A1033184601F042F8D6
:101700000346002B1CD07B68002B19D07B6801227C
:101710001A6015E000F0D4FD386197F917303A6986
:101720009A420DD997F917307F2B02D104F044F873
:10173000FEE7FB7D0133DBB25AB23B6A83F84420FB
:1017400001237B6201E000237B62F86904F041F829
:101750007B6A18462837BD4680BD80B584B000AF8F
:1017600078607B68FB60FB68002B02D104F024F8F2
:10177000FEE7FB6893F84630002B02D1F86802F0D0
:1017800001F800BF1037BD4680BD80B485B000AF02
:1017900078607B685B6A002B06D07B681B6B1B68DC
:1017A000C3F10A03FB6001E00023FB60FB681846FD
:1017B0001437BD465DF8047B704780B586B000AF36
:1017C000F860B9607A6000237B61FB689B6B3B61CA
:1017D000FB681B6C002B0DD1FB681B68002B4DD1E7
:1017E000FB689B68184601F0EDFA7861FB680022FF
:1017F0009A6043E07B68002B19D1FB685868FB684E
:101800001B6C1A46B96809F0DFFFFB685A68FB6871
:101810001B6C1A44FB685A60FB685A68FB689B683B
:101820009A422BD3FB681A68FB685A6026E0FB6873
:10183000D868FB681B6C1A46B96809F0C5FFFB68DD
:10184000DA68FB681B6C5B421A44FB68DA60FB6871
:10185000DA68FB681B689A4207D2FB689A68FB68E3
:101860001B6C5B421A44FB68DA607B68022B05D173
:101870003B69002B02D03B69013B3B613B695A1C31
:10188000FB689A637B6918461837BD4680BD80B5F2
:1018900082B000AF786039607B681B6C002B18D079
:1018A0007B68DA687B681B6C1A447B68DA607B684B
:1018B000DA687B689B689A4203D37B681A687B6806
:1018C000DA607B68D9687B681B6C1A46386809F057
:1018D0007BFF00BF0837BD4680BD80B584B000AF38
:1018E000786003F029FE7B6893F84530FB7311E0C4
:1018F0007B685B6A002B12D07B682433184600F0AB
:1019000041FF0346002B01D001F078F8FB7B013B3F
:10191000DBB2FB7397F90F30002BE9DC00E000BF6E
:101920007B68FF2283F8452003F018FE03F004FED5
:101930007B6893F84430BB7311E07B681B69002B14
:1019400012D07B681033184600F01CFF0346002BB2
:1019500001D001F053F8BB7B013BDBB2BB7397F9BD
:101960000E30002BE9DC00E000BF7B68FF2283F82B
:10197000442003F0F3FD00BF1037BD4680BD80B5A5
:1019800084B000AF786003F0D7FD7B689B6B002BC1
:1019900002D10123FB6001E00023FB6003F0DEFDC8
:1019A000FB6818461037BD4680BD80B584B000AFD7
:1019B000786003F0C1FD7B689A6B7B68DB6B9A42B1
:1019C00002D10123FB6001E00023FB6003F0C6FDB0
:1019D000FB6818461037BD4680BD80B586B000AFA5
:1019E000F860B9607A60FB687B6103F0A5FD7B69F4
:1019F00093F844305BB2B3F1FF3F03D17B6900221F
:101A000083F844207B6993F845305BB2B3F1FF3F24
:101A100003D17B69002283F8452003F09FFD7B6999
:101A20009B6B002B06D17B6924337A68B968184612
:101A300000F06AFE7869FFF750FF00BF1837BD4617
:101A400080BD80B58CB004AFF860B9607A603B604F
:101A5000FB6A002B02D103F0AFFEFEE73B6B002BCD
:101A600002D103F0A9FEFEE7C4237B617B69C42B8E
:101A700002D003F0A1FEFEE77B693B6B002B23D075
:101A8000FB6A002B20D03B6BFB61C4220021F8696C
:101A900009F0A7FEFB69FA6A1A63FB69022283F860
:101AA000C12000230393FB69029307F118030193FC
:101AB000BB6A00933B687A68B968F86800F056F82A
:101AC000F86900F0EDF801E00023BB61BB6918463E
:101AD0002037BD4680BD80B58CB004AFF860B960DA
:101AE0003B601346FB80FB889B00184601F0A0FD7D
:101AF00078617B69002B13D0C42001F099FDF86157
:101B0000FB69002B08D0C4220021F86909F069FEA6
:101B1000FB697A691A6305E0786901F033FE01E038
:101B20000023FB61FB69002B17D0FB69002283F8BF
:101B3000C120FA8800230393FB690293FB6A019397
:101B4000BB6A00933B68B968F86800F00FF8F86961
:101B500000F0A6F80123BB6102E04FF0FF33BB6148
:101B6000BB6918462037BD4680BD000080B586B0F1
:101B700000AFF860B9607A603B60BB6A186B7B6845
:101B80009B001A46A52109F02CFEBB6A1A6B7B68E4
:101B900003F18043013B9B0013443B613B6923F00D
:101BA00007033B613B6903F00703002B02D003F0FE
:101BB00003FEFEE7BB6A3A691A64BB68002B1ED0BD
:101BC00000237B6112E0BA687B6913441978BA6A12
:101BD0007B69134434330A461A70BA687B6913442C
:101BE0001B78002B06D07B6901337B617B690B2B53
:101BF000E9D900E000BFBB6A002283F83F203B6ABE
:101C0000092B02D903F0D8FDFEE73B6A092B01D965
:101C100009233B62BB6A3A6ADA62BB6A3A6ADA64EF
:101C2000BB6A04331846FFF7A2F8BB6A183318469C
:101C3000FFF79DF8BB6ABA6A1A613B6AC3F10A02F0
:101C4000BB6A9A61BB6ABA6A5A62BB6A5C33602239
:101C50000021184609F0C5FDBB6A0E4A1A66BB6A28
:101C60000D4A5A66BB6A0D4A9A66BB6A196B3B6895
:101C7000FA68386903F0BEFC0246BB6A1A607B6AE8
:101C8000002B02D07B6ABA6A1A6000BF1837BD46C3
:101C900080BD00BFF4C1000014C20000D4C1000028
:101CA00080B584B000AF786003F046FC3E4B1B6803
:101CB00001333D4A13603D4B1B68002B09D13B4A61
:101CC0007B681360384B1B68012B10D100F002FFBA
:101CD0000DE0374B1B68002B09D1344B1B68DA6AC7
:101CE0007B68DB6A9A4202D8304A7B681360314BCA
:101CF0001B6801332F4A13602E4B1A687B685A64A5
:101D00007B68DA6A2C4B1B689A4203D97B68DB6AD2
:101D1000294A13607B68DA6A284913469B001344FA
:101D20009B000B4404331B68FB607B68FA689A6075
:101D3000FB689A687B68DA60FB689B687A680432A3
:101D40005A607B681A1DFB689A607B68DA6A1346E2
:101D50009B0013449B00194A1A447B685A617B68B4
:101D6000DA6A164913469B0013449B000B441B6818
:101D7000591C124813469B0013449B0003441960EE
:101D800003F0ECFB0A4B1B68002B08D0074B1B68C9
:101D9000DA6A7B68DB6A9A4201D203F0BBFB00BFC0
:101DA0001037BD4680BD00BFE00A0020A409002016
:101DB000EC0A0020FC0A0020E80A0020A809002004
:101DC00080B584B000AF786003F0B6FB7B68002B71
:101DD00002D1284B1B6800E07B68FB60FB68043382
:101DE0001846FFF72EF8FB689B6A002B04D0FB68AF
:101DF00018331846FFF725F81F4B1B6801331E4A9E
:101E000013601C4B1B68FA689A420BD1FB680433C1
:101E100019461A48FEF7B8FF194B1B680133184AD8
:101E2000136006E0174B1B68013B164A136000F075
:101E3000EFFE03F093FB0F4B1B68FA689A4202D047
:101E4000F86800F0B5FE104B1B68002B0DD0094B55
:101E50001B68FA689A4208D10C4B1B68002B02D011
:101E600003F0AAFCFEE703F055FB00BF1037BD46A8
:101E700080BD00BFA4090020FC0A0020B40A002095
:101E8000C80A0020E00A0020EC0A0020080B00200D
:101E900080B584B000AF786003F04EFB7B68002B08
:101EA00002D12F4B1B6800E07B68BB60BB6804332A
:101EB0001846FEF7C6FFBB689B6A002B04D0BB68C0
:101EC00018331846FEF7BDFFBB6804331946254892
:101ED000FEF75AFF0023FB6010E0BA68FB6813446A
:101EE000C0331B78DBB2012B05D1BA68FB68134401
:101EF000C03300221A70FB680133FB60FB68002BC3
:101F0000EBDD03F02BFB184B1B68002B05D003F017
:101F100013FB00F07DFE03F021FB114B1B68BA6838
:101F20009A4219D1104B1B68002B09D00F4B1B682C
:101F3000002B02D003F040FCFEE703F0EBFA0BE0CD
:101F4000084B1A680A4B1B689A4203D1044B0022C3
:101F50001A6001E000F03AFB00BF1037BD4680BDBB
:101F6000A4090020CC0A0020EC0A0020080B002065
:101F7000E00A002080B588B004AF0023BB600023D6
:101F80007B603A46391D07F10803184601F000FE50
:101F900039687B68BA68029201930023009300239A
:101FA0000A461D491D48FFF74CFD03461C4A1360B5
:101FB0001B4B1B68002B02D00123FB6001E00023B8
:101FC000FB60FB68012B02D101F09EF8F860FB6812
:101FD000012B13D103F0F0FB124B1B685C33124A48
:101FE0001360124B4FF0FF321A60114B01221A603E
:101FF000104B00221A6003F087FB06E0FB68B3F188
:10200000FF3F02D103F0D8FBFEE70B4B1B6800BF7C
:102010001037BD4680BD00BFECB80000152A000097
:10202000040B0020A409002060070020000B002002
:10203000EC0A0020E40A0020AC05002080B400AFC8
:10204000044B1B680133034A136000BFBD465DF8B3
:10205000047B7047080B002080B483B000AF0023DE
:102060003B60144B1B68002B01D001233B60124BDB
:102070001B68DB6A002B02D000237B6012E00F4B51
:102080001B68012B02D900237B600BE03B68002B0F
:1020900002D000237B6005E0094B1A68094B1B68DE
:1020A000D31A7B607B6818460C37BD465DF8047B0D
:1020B000704700BFE80A0020A4090020A8090020FA
:1020C000000B0020E40A002080B586B000AF00239A
:1020D0007B6100233B616A4B1B68002B02D103F03C
:1020E0006BFBFEE703F028FA654B1B68013B644A73
:1020F0001360634B1B68002B40F0BB80614B1B6877
:10210000002B00F0B6808BE05F4BDB68DB687B6107
:102110007B699B6ABB607B69DB697A69126A9A603A
:102120007B691B6A7A69D2695A60BB685A687B69A5
:1021300018339A4203D17B691A6ABB685A607B697B
:1021400000229A62BB681B685A1EBB681A607B69D2
:102150005B697B607B699B687A69D2689A607B69FE
:10216000DB687A6992685A607B685A687B690433D5
:102170009A4203D17B69DA687B685A607B690022E6
:102180005A617B681B685A1E7B681A607B69DA6A31
:102190003E4B1B689A4203D97B69DB6A3B4A13605A
:1021A0007B69DA6A3A4913469B0013449B000B444F
:1021B00004331B683B607B693A689A603B689A68A5
:1021C0007B69DA603B689B687A6904325A607B6994
:1021D0001A1D3B689A607B69DA6A13469B001344B8
:1021E0009B002B4A1A447B695A617B69DA6A284949
:1021F00013469B0013449B000B441B68591C244846
:1022000013469B0013449B00034419607B69DA6A00
:10221000204B1B68DB6A9A4202D31F4B01221A60D3
:10222000194B1B68002B7FF46FAF7B69002B01D02B
:1022300000F0EEFC194B1B68FB60FB68002B10D014
:1022400000F08CF80346002B02D0134B01221A60D9
:10225000FB68013BFB60FB68002BF1D10F4B0022B8
:102260001A600D4B1B68002B03D001233B6103F068
:1022700051F903F073F93B6918461837BD4680BD24
:10228000080B0020E00A0020A00A0020E80A002035
:10229000A8090020A4090020F40A0020F00A002068
:1022A00080B483B000AF054B1B687B607B68184629
:1022B0000C37BD465DF8047B704700BFE40A002080
:1022C00080B400AF034B1B681846BD465DF8047B25
:1022D000704700BFE00A002080B582B000AF786090
:1022E0001A4B1A687B681A44194B1B689A4202D928
:1022F00003F062FAFEE7154B1A687B681A44144B28
:102300001B689A4218D1134B1B68002B02D103F0B3
:1023100053FAFEE77B68002B02D103F04DFAFEE78B
:1023200003F00AF90C4B1B6801330B4A136003F0EE
:1023300015F97B68013B7B60044B1A687B6813448A
:10234000024A136000BF0837BD4680BDE40A002082
:10235000000B0020080B0020F00A002080B588B098
:1023600000AF0023FB61734B1B68002B40F0D7804C
:10237000714B1B680133BB616F4ABB691360BB695A
:10238000002B18D16D4B1B681B68002B02D003F08B
:1023900013FAFEE7694B1B687B61694B1B68674A50
:1023A0001360674A7B691360664B1B680133654A9B
:1023B000136000F02DFC644B1B68BA699A42C0F0B0
:1023C000A7805E4B1B681B68002B04D15E4B4FF04F
:1023D000FF321A609CE0594B1B68DB68DB683B618D
:1023E0003B695B68FB60BA69FB689A4203D2564A54
:1023F000FB6813608CE03B695B69BB603B699B6871
:102400003A69D2689A603B69DB683A6992685A60B7
:10241000BB685A683B6904339A4203D13B69DA6866
:10242000BB685A603B6900225A61BB681B685A1E30
:10243000BB681A603B699B6A002B1ED03B699B6A94
:102440007B603B69DB693A69126A9A603B691B6A87
:102450003A69D2695A607B685A683B6918339A4274
:1024600003D13B691A6A7B685A603B6900229A6211
:102470007B681B685A1E7B681A603B69DA6A334BBB
:102480001B689A4203D93B69DB6A304A13603B6997
:10249000DA6A2F4913469B0013449B000B44043314
:1024A0001B683B603B693A689A603B689A683B6985
:1024B000DA603B689B683A6904325A603B691A1DCE
:1024C0003B689A603B69DA6A13469B0013449B00A1
:1024D0001F4A1A443B695A613B69DA6A1C49134630
:1024E0009B0013449B000B441B68591C184813465F
:1024F0009B0013449B00034419603B69DA6A154B47
:102500001B68DB6A9A427FF65CAF0123FB6158E7E8
:10251000114B1B68002B07D00123FB6104E00F4B1C
:102520001B6801330D4A1360FB6918462037BD460E
:1025300080BD00BF080B0020E40A0020980A00209C
:102540009C0A0020F80A0020000B0020E80A002066
:10255000A8090020A4090020F40A0020F00A0020A5
:1025600080B584B000AF786039607B68002B03D100
:10257000084B1B68FB6001E07B68FB6002F0DCFF3E
:10258000FB683A685A6502F0E9FF00BF1037BD46A4
:1025900080BD00BFA409002080B584B000AF786082
:1025A0007B68002B02D1084B1B6800E07B68FB6056
:1025B00002F0C2FFFB685B6DBB6002F0CFFFBB683F
:1025C00018461037BD4680BDA409002080B584B0F0
:1025D00000AF394B1B68002B03D0384B01221A6027
:1025E00065E0364B00221A60354B1B681B6BBB60E5
:1025F0004FF0A5337B60BB681B687A689A4211D1A3
:10260000BB6804331B687A689A420BD1BB680833F5
:102610001B687A689A4205D1BB680C331B687A68DC
:102620009A4208D0264B1A68254B1B68343319464A
:102630001046FEF70BF8234B1B68FB6008E0FB68B5
:10264000002B02D103F0B8F8FEE7FB68013BFB600A
:102650001D49FA6813469B0013449B000B441B68FA
:10266000002BECD0FA6813469B0013449B00164ADB
:1026700013443B603B685B685A683B685A603B6840
:102680005A683B6808339A4204D13B685B685A68D1
:102690003B685A603B685B68DB68094A1360094A1B
:1026A000FB681360064B1B685C33084A136000BF6D
:1026B0001037BD4680BD00BF080B0020F40A002083
:1026C000A4090020E80A0020A809002060070020D3
:1026D00080B582B000AF786039607B68002B02D192
:1026E00003F06AF8FEE7074B1B6818331946786851
:1026F000FEF76EFB0121386800F098FC00BF083738
:10270000BD4680BDA409002080B586B000AFF8604A
:10271000B9607A60FB68002B02D103F04DF8FEE748
:10272000FB685B687B61164B1B687A69DA61144B46
:102730001B687A6992681A62114B1A687B699B68F8
:1027400018325A600E4B1B6803F118027B699A60BD
:102750000B4B1B68FA689A62FB681B685A1CFB6883
:102760001A607B68002B02D04FF0FF33BB607968A2
:10277000B86800F05BFC00BF1837BD4680BD00BFE5
:10278000A409002080B588B000AF78607B68DB6862
:10279000DB68BB61BB69002B02D103F00DF8FEE7DB
:1027A000BB699B6A7B61BB69DB69BA69126A9A6023
:1027B000BB691B6ABA69D2695A607B695A68BB698E
:1027C00018339A4203D1BB691A6A7B695A60BB69A4
:1027D00000229A627B691B685A1E7B691A604B4B08
:1027E0001B68002B61D1BB695B69FB60BB699B689F
:1027F000BA69D2689A60BB69DB68BA6992685A6044
:10280000FB685A68BB6904339A4203D1BB69DA6832
:10281000FB685A60BB6900225A61FB681B685A1E3C
:10282000FB681A60BB69DA6A394B1B689A4203D9A4
:10283000BB69DB6A364A1360BB69DA6A35491346FD
:102840009B0013449B000B4404331B68BB60BB69B3
:10285000BA689A60BB689A68BB69DA60BB689B68B3
:10286000BA6904325A60BB691A1DBB689A60BB69B9
:10287000DA6A13469B0013449B00264A1A44BB693C
:102880005A61BB69DA6A234913469B0013449B00D3
:102890000B441B68591C1F4813469B0013449B00A4
:1028A0000344196000F0B4F91BE01B4B5B683B610B
:1028B000BB693A69DA613B699A68BB691A623B692C
:1028C0009B68BA6918325A60BB6903F118023B6908
:1028D0009A60BB69104A9A620F4B1B6801330E4A1B
:1028E0001360BB69DA6A0D4B1B68DB6A9A4205D933
:1028F0000123FB610A4B01221A6001E00023FB6106
:10290000FB6918462037BD4680BD00BF080B00207C
:10291000E80A0020A8090020A00A0020A40900203D
:10292000F40A002080B483B000AF7860064B1A68C8
:102930007B681A60054B1A687B685A6000BF0C37C9
:10294000BD465DF8047B7047F80A0020E40A0020C9
:1029500080B586B000AF786039607B68002B02D10B
:1029600002F02AFFFEE73B68002B02D102F024FFB1
:10297000FEE702F0E1FD1F4B1B683B617B685B6873
:102980003A69D31AFB603B681B68B3F1FF3F02D181
:1029900000237B6126E07B681A68174B1B689A420C
:1029A0000AD07B685B683A699A4205D301237B6150
:1029B0003B6800221A6015E03B681B68FA689A427F
:1029C0000BD23B681A68FB68D21A3B681A607868B9
:1029D000FFF7A8FF00237B6104E03B6800221A6038
:1029E00001237B6102F0BAFD7B6918461837BD46AA
:1029F00080BD00BFE40A0020F80A002080B400AFC8
:102A0000034B01221A6000BFBD465DF8047B70478E
:102A1000F40A002080B584B000AF786000F09AF826
:102A2000FFF71AFBF860FB68012BF7D9FFF706FBED
:102A30000A4B1A680A4B1B689A4202D202F0BCFE8B
:102A4000FEE7FFF709FBF860FB68012B02D9F86885
:102A500001F0A2FFFFF738FBE0E700BF000B00200A
:102A6000E40A002080B483B000AF01233B6001235F
:102A7000FB71134B1B68002B02D00023FB7117E086
:102A8000104B1B68002B02D00023FB7110E00E4B93
:102A90001B68002B02D00023FB7109E00B4B1A6866
:102AA0000B4B19683B68CB1A9A4201D10223FB7188
:102AB000FB7918460C37BD465DF8047B704700BFB4
:102AC000A00A0020F40A0020F00A0020CC0A00200E
:102AD000E00A002080B582B000AF00237B600CE0EC
:102AE0007A6813469B0013449B00124A134418460D
:102AF000FEF71DF97B6801337B607B68092BEFD9FA
:102B00000D48FEF714F90D48FEF711F90C48FEF7D1
:102B10000EF90C48FEF70BF90B48FEF708F90B4BC2
:102B2000054A1A600A4B054A1A6000BF0837BD46BD
:102B300080BD00BFA8090020700A0020840A002080
:102B4000A00A0020B40A0020CC0A0020980A002025
:102B50009C0A002080B582B000AF19E002F0ECFCC6
:102B6000104BDB68DB687B607B6804331846FEF73C
:102B700068F90D4B1B68013B0B4A13600B4B1B683C
:102B8000013B0A4A136002F0E9FC786800F010F893
:102B9000064B1B68002BE1D100BF00BF0837BD46C4
:102BA00080BD00BFB40A0020E00A0020C80A00204F
:102BB00080B582B000AF7860144B1B685C33184658
:102BC00008F024FE7B6893F8C130002B08D17B68A5
:102BD0001B6B184600F0D6FD786800F0D3FD10E0BE
:102BE0007B6893F8C130012B03D1786800F0CAFDEF
:102BF00007E07B6893F8C130022B02D002F0DCFDC5
:102C0000FEE700BF0837BD4680BD00BFA409002015
:102C100080B400AF0A4B1B681B68002B04D1094B22
:102C20004FF0FF321A6005E0054B1B68DB681B683C
:102C3000044A136000BFBD465DF8047B704700BFC7
:102C4000980A0020000B002080B483B000AF054B31
:102C50001B687B607B6818460C37BD465DF8047BBB
:102C6000704700BFA409002080B483B000AF0B4BB5
:102C70001B68002B02D101237B6008E0084B1B6816
:102C8000002B02D102237B6001E000237B607B6884
:102C900018460C37BD465DF8047B7047EC0A0020EF
:102CA000080B002080B586B000AF78607B683B6180
:102CB00000237B617B68002B79D03B69DA6A3E4B4D
:102CC0001B68DB6A9A4269D23B699B69002B06DB71
:102CD000394B1B68DB6AC3F10A023B699A613B69A5
:102CE00059693B69DA6A13469B0013449B00334AD7
:102CF000134499424AD13B6904331846FEF7A1F8C0
:102D00002D4B1B68DA6A3B69DA623B69DA6A2C4B45
:102D10001B689A4203D93B69DB6A294A13603B6905
:102D2000DA6A264913469B0013449B000B44043384
:102D30001B68FB603B69FA689A60FB689A683B69AC
:102D4000DA60FB689B683A6904325A603B691A1D75
:102D5000FB689A603B69DA6A13469B0013449B0048
:102D6000164A1A443B695A613B69DA6A13491346A9
:102D70009B0013449B000B441B68591C0F481346CF
:102D80009B0013449B000344196004E00A4B1B683A
:102D9000DA6A3B69DA6201237B6108E03B69DA6C3D
:102DA000054B1B68DB6A9A4201D201237B617B6978
:102DB00018461837BD4680BDA4090020A809002088
:102DC000E80A002080B586B000AF78607B683B6180
:102DD00000237B617B68002B6ED03A4B1B683A69FD
:102DE0009A4202D002F0E8FCFEE73B691B6D002B23
:102DF00002D102F0E1FCFEE73B691B6D5A1E3B6904
:102E00001A653B69DA6A3B69DB6C9A4254D03B69CC
:102E10001B6D002B50D13B6904331846FEF711F8A7
:102E20003B69DA6C3B69DA623B69DB6AC3F10A022F
:102E30003B699A613B69DA6A234B1B689A4203D962
:102E40003B69DB6A204A13603B69DA6A1F49134613
:102E50009B0013449B000B4404331B68FB603B69DD
:102E6000FA689A60FB689A683B69DA60FB689B685D
:102E70003A6904325A603B691A1DFB689A603B69E3
:102E8000DA6A13469B0013449B00104A1A443B69BC
:102E90005A613B69DA6A0D4913469B0013449B0053
:102EA0000B441B68591C094813469B0013449B00A4
:102EB0000344196001237B617B6918461837BD46BE
:102EC00080BD00BFA4090020E80A0020A809002056
:102ED00080B588B000AF786039607B68BB61012342
:102EE0007B617B68002B00F08380BB691B6D002B2E
:102EF00002D102F061FCFEE7BB69DB6C3A689A42E2
:102F000002D93B68FB6102E0BB69DB6CFB61BB691A
:102F1000DB6AFA699A426BD0BB691B6D7A699A4287
:102F200066D1354B1B68BA699A4202D102F044FC63
:102F3000FEE7BB69DB6A3B61BB69FA69DA62BB69C0
:102F40009B69002B04DBFB69C3F10A02BB699A6130
:102F5000BB6959693A6913469B0013449B00274A91
:102F60001344994244D1BB6904331846FDF769FF05
:102F7000BB69DA6A224B1B689A4203D9BB69DB6AD8
:102F80001F4A1360BB69DA6A1C4913469B0013444D
:102F90009B000B4404331B68FB60BB69FA689A60B2
:102FA000FB689A68BB69DA60FB689B68BA6904329F
:102FB0005A60BB691A1DFB689A60BB69DA6A1346DE
:102FC0009B0013449B000D4A1A44BB695A61BB69BC
:102FD000DA6A0A4913469B0013449B000B441B68A2
:102FE000591C064813469B0013449B000344196078
:102FF00000BF2037BD4680BDA4090020A8090020DD
:10300000E80A002080B400AF074B1B68002B04D0F7
:10301000054B1B681A6D01321A65034B1B68184675
:10302000BD465DF8047B7047A409002080B586B0DA
:1030300000AF786039602E4B1B687B612D4B1B689D
:1030400004331846FDF7FDFE7B68B3F1FF3F24D142
:103050003B68002B21D0284B5B683B61254B1B68EC
:103060003A699A60234B1B683A699268DA60214B8F
:103070001A683B699B6804325A601E4B1B681A1D14
:103080003B699A601B4B1B681B4A5A611A4B1B68B1
:103090000133194A136000BF26E07A697B68134444
:1030A000FB60144B1B68FA685A60FA687B699A42A5
:1030B00009D2124B1A680F4B1B680433194610468D
:1030C000FDF786FE10E00E4B1A680A4B1B680433AE
:1030D00019461046FDF77CFE0A4B1B68FA689A42B7
:1030E00002D2084AFB68136000BF1837BD4680BD96
:1030F000E40A0020A4090020CC0A00209C0A002039
:10310000980A0020000B002080B588B004AF00238F
:10311000FB6000F059FA184B1B68002B20D00023ED
:10312000BB6000237B603A46391D07F1080318464F
:1031300000F048FD39687B68BA6802920193052364
:10314000009300230A460D490D48FEF77AFC03461A
:103150000C4A13600B4B1B68002B01D00123FB6052
:10316000FB68002B02D102F027FBFEE7FB68184644
:103170001037BD4680BD00BF3C0B0020F4B80000F6
:103180002D320000400B002080B584B000AFF86005
:10319000B9607A6008E0FB689B69BA681344BB6059
:1031A000FB681B6AF8689847FB689A69BB68D11886
:1031B000BB687A68F86800F0D5F80346002BEAD1BE
:1031C00000BF00BF1037BD4680BD000080B584B091
:1031D00000AF78603960144B1B68DB68DB68FB600C
:1031E000FB6804331846FDF72CFEFB6893F8283083
:1031F00003F00403002B05D03A687968F868FFF7FC
:10320000C3FF08E0FB6893F8283023F00103DAB22B
:10321000FB6883F82820FB681B6AF868984700BFA2
:103220001037BD4680BD00BF340B002080B584B090
:1032300000AF786007F10803184600F04FF8F86017
:10324000BB681946F86800F003F800F0CDF8F1E724
:1032500080B584B000AF78603960FEF7EFFE07F10B
:103260000803184600F05EF8F860BB68002B2AD10E
:103270003B68002B0AD17A68FB689A4206D8FEF7B1
:1032800023FFF9687868FFF7A1FF1EE03B68002B79
:1032900008D0104B1B681B68002B01D1012300E0F4
:1032A00000233B600C4B18687A68FB68D31A3A68B5
:1032B0001946FEF792FBFEF707FF0346002B04D1E9
:1032C00002F028F901E0FEF7FFFE00BF1037BD460F
:1032D00080BD00BF380B00203C0B002080B485B0BF
:1032E00000AF78600E4B1B681B68002B01D10122D8
:1032F00000E000227B681A607B681B68002B05D108
:10330000074B1B68DB681B68FB6001E00023FB6068
:10331000FB6818461437BD465DF8047B704700BF54
:10332000340B002080B584B000AF7860FEF7B8FFA2
:10333000F8600B4B1B68FA689A4205D200F01EF940
:103340007B6801221A6002E07B6800221A60044A4E
:10335000FB681360FB6818461037BD4680BD00BF90
:10336000948D002080B586B000AFF860B9607A60B7
:103370003B6000237B61FB68BA685A60FB68FA68AF
:103380001A61BA687B689A4212D87A683B68D21A86
:10339000FB689B699A4202D301237B611BE0104BBF
:1033A0001A68FB68043319461046FDF711FD12E058
:1033B0007A683B689A4206D2BA683B689A4202D35E
:1033C00001237B6107E0074B1A68FB680433194649
:1033D0001046FDF7FDFC7B6918461837BD4680BDD9
:1033E000380B0020340B002080B588B000AFB2E06D
:1033F0007B68002B10DA3B1D0433FB61FB69002B5B
:1034000002D102F0D9F9FEE7FB691B68FA6950683E
:10341000FA699268114698477B68002BC0F29A803F
:10342000FB68BB61BB695B69002B04D0BB690433DB
:103430001846FDF706FD3B461846FFF773FF786117
:103440007B68013B082B00F2868001A252F823F032
:103450007534000075340000DD340000F1340000E4
:103460002B3500007534000075340000DD34000099
:10347000F1340000BB6993F8283043F00103DAB25D
:10348000BB6983F82820BA68BB699B69D118BB68FF
:103490007A69B869FFF766FF0346002B5BD0BB690A
:1034A00093F8283003F00403002B09D0BA68BB69F5
:1034B0009B6913447A691946B869FFF765FE08E00D
:1034C000BB6993F8283023F00103DAB2BB6983F8B3
:1034D0002820BB691B6AB86998473CE0BB6993F830
:1034E000283023F00103DAB2BB6983F8282032E0E8
:1034F000BB6993F8283043F00103DAB2BB6983F863
:103500002820BA68BB699A61BB699B69002B02D10C
:1035100002F052F9FEE7BB699A697B69D1187B69B1
:103520007A69B869FFF71EFF15E0BB6993F8283088
:1035300003F00203002B03D1B86900F023F90AE07D
:10354000BB6993F8283023F00103DAB2BB6983F832
:10355000282000E000BF084B1B68391D00221846D8
:10356000FDF7FEFE0346002B7FF442AF00BF00BF15
:103570002037BD4680BD00BF3C0B002080B582B027
:1035800000AF09E00E4B1B68DB681B683B604FF027
:10359000FF313868FFF71AFE094B1B681B68002BC8
:1035A000F0D1074B1B687B60064B1B68044A136015
:1035B000044A7B68136000BF0837BD4680BD00BF6A
:1035C000340B0020380B002080B582B002AF01F030
:1035D000B3FF104B1B68002B16D10F48FDF7A7FB5C
:1035E0000E48FDF7A4FB0E4B0B4A1A600D4B0B4A1D
:1035F0001A60002300930C4B0C4A10211420FDF795
:10360000C1FC0346034A136001F0A8FF00BFBD469A
:1036100080BD00BF3C0B00200C0B0020200B0020C5
:10362000340B0020380B0020D88E0020988D00200D
:1036300080B588B000AF786000237B61FEF7FEFCA8
:103640004B4B1B68002B01D100F0E8F87B68002B86
:1036500012D008227B6803F00703D31A08333B61BA
:103660003B69DB437A689A4204D87A683B69134421
:103670007B6001E000237B607B68002B68DB7B685C
:10368000002B65D03B4B1B687A689A4260D83A4B56
:10369000BB61394B1B68FB6104E0FB69BB61FB69E3
:1036A0001B68FB61FB695B687A689A4203D9FB6916
:1036B0001B68002BF1D12E4B1B68FA699A4247D048
:1036C000BB691B68082213447B61FB691A68BB69EC
:1036D0001A60FB695A687B68D21A08235B009A4219
:1036E00017D9FA697B681344FB60FB6803F0070392
:1036F000002B02D002F060F8FEE7FB695A687B6895
:10370000D21AFB685A60FB697A685A60F86800F060
:10371000E1F8184B1A68FB695B68D31A154A136005
:10372000144B1A68154B1B689A4203D2114B1B6845
:10373000124A1360FB695B6843F00042FB695A6000
:10374000FB6900221A600E4B1B6801330C4A1360A0
:10375000FEF7BAFC7B6903F00703002B02D002F0EE
:103760002BF8FEE77B6918462037BD4680BD00BFB9
:103770004C8B0020508B0020448B0020548B002069
:10378000588B002080B584B000AF78607B68FB6008
:103790007B68002B39D008235B42FA681344FB6036
:1037A000FB68BB60BB685B68002B02DB02F004F8BF
:1037B000FEE7BB681B68002B02D001F0FDFFFEE7AF
:1037C000BB685B68DB0F03F00103DBB2002B1CD08E
:1037D000BB681B68002B18D1BB685B6823F00042F4
:1037E000BB685A60FEF72AFCBB685A68094B1B6825
:1037F0001344084A1360B86800F06CF8064B1B6865
:103800000133054A1360FEF75FFC00BF1037BD4669
:1038100080BD00BF508B00205C8B002080B485B041
:1038200000AF4FF40043BB60254BFB60FB6803F027
:103830000703002B0CD0FB680733FB60FB6823F009
:103840000703FB60BA68FB68D31A1D4A1344BB60C8
:10385000FB687B601B4A7B6813601A4B00225A602E
:103860007B68BA681344FB600822FB689B1AFB6004
:10387000FB6823F00703FB60FB68134A1360124BDD
:103880001B6800225A60104B1B6800221A607B687C
:103890003B603B68FA68D21A3B685A600A4B1A6868
:1038A0003B681A603B685B68084A13603B685B686A
:1038B000074A136000BF1437BD465DF8047B7047AC
:1038C000440B0020448B00204C8B0020548B0020A4
:1038D000508B002080B485B000AF7860284BFB602F
:1038E00002E0FB681B68FB60FB681B687A689A4211
:1038F000F7D8FB68BB60FB685B68BA6813447A68FA
:103900009A4208D1FB685A687B685B681A44FB6876
:103910005A60FB687B607B68BB607B685B68BA68E9
:103920001A44FB681B689A4218D1FB681A68154B49
:103930001B689A420DD07B685A68FB681B685B68FD
:103940001A447B685A60FB681B681A687B681A60B7
:1039500008E00C4B1A687B681A6003E0FB681A6881
:103960007B681A60FA687B689A4202D0FB687A68C2
:103970001A6000BF1437BD465DF8047B704700BF76
:10398000448B00204C8B002080B483B000AF786063
:103990007B687A6853607A68136000BF0C37BD4655
:1039A0005DF8047B704780B483B000AF78607B68BB
:1039B0001A687B689A420CBF01230023DBB21846C9
:1039C0000C37BD465DF8047B704780B584B000AF0E
:1039D000786000F053FEF8607B681B68BB60BB68D2
:1039E0001A687B681A60BB681B687A685A60F86856
:1039F00000F0E0FEBB6818461037BD4680BD80B4BD
:103A000083B000AF78607B681B6818460C37BD46F2
:103A10005DF8047B704780B483B000AF78607B684A
:103A20001B6818460C37BD465DF8047B704780B5AF
:103A300084B000AF7860396000F020FEF8607A68EA
:103A40003B681A607B685A683B685A607B685B68B1
:103A50003A681A607B683A685A60F86800F0AAFE13
:103A600000BF1037BD4680BD80B586B002AF78601C
:103A700039600023FB60032300937B680022002150
:103A80000120FDF77FFAF860FB68002B08D03B6847
:103A9000002B05D0002300220021F868FDF725FB4C
:103AA000FB68002B03D00449F86801F0C5FCFB68F3
:103AB00018461037BD4680BD04B90000B0B588B0C7
:103AC00000AF7860396000F031FE0346002B06D06D
:103AD000002200217868FDF7D3FDF8612FE000F0A7
:103AE00051FD78617B69B3F57A7F21D03B68184638
:103AF0004FF000017B691A464FF0000302FB01F50D
:103B000000FB03F42C44A0FB0223E1180B46C7E999
:103B10000223C7E90223D7E902014FF47A724FF07A
:103B20000003FCF7EDFA02460B461346BB6101E0C9
:103B30003B68BB61B9697868FDF7CBFCF861FB694C
:103B4000012B01D1002301E04FF0FF33184620374D
:103B5000BD46B0BD80B584B000AF786000F0E6FD32
:103B6000034683F00103DBB2002B06D000230022C2
:103B700000217868FDF7B9FA05E007F10C03194652
:103B80007868FDF77BFB00BF1037BD4680BD0000A5
:103B900080B485B000AFF860B9607A60FB68074A0E
:103BA0001A60BB68064A1A607B6880221A6000BFF0
:103BB0001437BD465DF8047B704700BF288F002096
:103BC000EC8F002080B485B000AFF860B9607A60F7
:103BD000FB68074A1A60BB68064A1A607B68802245
:103BE0001A6000BF1437BD465DF8047B704700BF04
:103BF000EC910020B092002080B485B000AF7860D6
:103C00000823FB600323BB600CE07A68FB68134069
:103C1000002B01D0BB6809E0BB68013BBB60FB68BF
:103C20005B10FB60FB68002BEFD1002318461437B4
:103C3000BD465DF8047B704780B483B000AF786008
:103C40007B6800221A607B6800225A607B684FF014
:103C5000FF329A607B680022DA6000BF0C37BD46F5
:103C60005DF8047B7047000090B58DB000AFF86040
:103C7000B9607A60FB687B62FB68002B6FD000F054
:103C8000FDFC3862384B1B78DBB283F00103DBB2FA
:103C9000002B2DD00023BB6209E0BB6ADB00334A56
:103CA00013441846FFF770FEBB6A0133BB62BB6A60
:103CB000032BF2DD2E4B00221A602E4B00221A60DD
:103CC0002D4B01221A602D4B00221A7007F11403AC
:103CD000184600F041FDE023BB61294B196807F14C
:103CE0001403284A284800F06FFC1F4B01221A7069
:103CF000386A00F05FFD7B68002B01D1234B7B60AD
:103D00007B689B68B3F1FF3F02D10323FB6202E0B3
:103D10007B689B68FB62FB6A032B01D900231FE0D1
:103D20007B6A1846FFF730FE7B6A7A6803F10C0461
:103D300013460FCB84E80F007B6AFA6A5A617B6AEC
:103D4000BA68DA617B6A9A697B6A1A627B6A0022C6
:103D50005A62FB6ADB00054A1A447B6A9A607B6AF6
:103D600018463437BD4690BD6D8B00208C8B0020EB
:103D7000608B0020688B0020648B00206C8B0020FF
:103D8000B0050020813E0000708B0020ECB90000DF
:103D900080B582B000AF00F071FC7860064B1B6804
:103DA0003B60054B00221A60786800F003FD3B6819
:103DB00018460837BD4680BD648B002080B584B0AE
:103DC00000AF786042E0294B1B681846FFF714FFEC
:103DD000F860FB68DB00264A13441846FFF7F5FD40
:103DE0000346BB60FB68DB00214A13441846FFF71B
:103DF000DAFD0346002B09D00122FB6802FA03F327
:103E0000DA431A4B1B681340184A1360BB6802223E
:103E10005A62BB681B6A174A1360BB689A69BB6821
:103E20001A62786800F0C6FCBB68DB69BA68D068C3
:103E3000BA6812691146984700F020FC7860BB68A8
:103E40005B6A022B02D1BB6800225A62074B1B68D7
:103E5000002B03D0084B1B68012BB4D0074B00226A
:103E60001A7000BF1037BD4680BD00BF608B0020B8
:103E70008C8B0020688B0020648B00206C8B0020D2
:103E800080B582B000AF00F0F9FB78607868FFF78A
:103E900095FF786800F08EFC00BF0837BD4680BDF6
:103EA00080B400AF034B1B681846BD465DF8047B29
:103EB000704700BF688B002080B584B000AF786089
:103EC00039607B68FB6000F0D9FBB860FB681A6A58
:103ED0003B681A43FB681A62B86800F06BFCF8682C
:103EE00000F004F800BF1037BD4680BD80B584B037
:103EF00000AF78607B68FB6000F0C0FBB860FB68D7
:103F00005B6A012B15D0FB6801225A62FB685B6972
:103F1000DB00154A1344FA6811461846FFF787FD7F
:103F2000FB685B6901229A40104B1B6813430F4AE0
:103F300013600F4B1B78DBB283F00103DBB2002B65
:103F40000BD00C4B1B68012B07D10B4B1B68184681
:103F500000F01AFC064B01221A70B86800F02AFC27
:103F600000BF1037BD4680BD8C8B0020608B0020C9
:103F70006C8B0020648B0020B005002080B584B0DD
:103F800000AF786000F07AFBF860104A7B6813603D
:103F90000F4B1B68002B12D07B68012B0FD10D4BF0
:103FA0001B78DBB283F00103DBB2002B07D00A4B96
:103FB0001B68184600F0E8FB064B01221A70F868EF
:103FC00000F0F8FB00BF1037BD4680BD648B0020B9
:103FD000608B00206C8B0020B005002080B483B083
:103FE00000AF78607B68054A07CA83E8070000BF16
:103FF0000C37BD465DF8047B704700BF5C8C002029
:1040000080B588B000AF2C4B1B7883F00103DBB286
:10401000002B4CD02948FFF7B7FC284B00229A60B0
:10402000264B0122C3F89420244B0122C3F8982088
:10403000224B0022C3F89C20204B002283F8A020B2
:104040001E4B002283F8A1201C4B002283F8A220E3
:1040500007F110031846FFF7EFFD4FF0FF33BB6188
:1040600007F110031A4616491648FFF7FDFD0346EF
:10407000124A93643B1D184600F05AFD0A23FB6068
:104080003B1D1A461049114800F064FD03460B4AD7
:10409000C2F89030094BD3F89030184600F0DCFDA0
:1040A0000346064AC2F89C30034B01221A7000BF37
:1040B0002037BD4680BD00BF588C0020B08B00204B
:1040C0002D420000BC8B00204D430000008C0020DE
:1040D00080B582B000AF00F0D1FA7860074BD3F81A
:1040E00090300021184600F0D9FE3860786800F062
:1040F00061FB3B6818460837BD4680BDB08B002089
:1041000080B584B000AF00F0B9FAB8600E4BD3F8B8
:1041100090300021184600F0C1FE78600A4BD3F8B9
:1041200098207B68D31AFB60074BD3F89C30FA6861
:104130009A4201D90023FB60B86800F03BFBFB68A2
:1041400018461037BD4680BDB08B002080B582B0C8
:1041500000AF78603960094BD3F890307968184621
:1041600000F0C8FD054A7B68C2F89430034A3B68FA
:10417000C2F8983000BF0837BD4680BDB08B002024
:1041800080B588B000AF03463960FB714FF0FF3354
:10419000FB61254B7B617869FFF731FC0346BB610E
:1041A00038E0BB693B61B869FFF735FC0346BB618A
:1041B0003B691B7DDBB2002B2CD0FB79002B19D087
:1041C0003B69DB683A689A4214D13B691B69002B52
:1041D00003D13B6900221A7506E03B69DA683B6946
:1041E0001B691A443B69DA603B699B693A69D26989
:1041F000104698473B691B7DDBB2002B0AD03B6918
:10420000DA683B68D31AFB60FA68FB699A4201D20C
:10421000FB68FB61BA697B699A42C2D1FB691846A7
:104220002037BD4680BD00BFB08B002080B58CB06C
:1042300000AF7860396000F021FAB861424BD3F8E2
:1042400090300121184600F029FE78613E4B012292
:1042500083F8A0203C4B002283F8A1203A4BD3F8EE
:104260009830BB627A69BB6AD31A7B62364B9B6813
:10427000BA6AD31A3B61344B9B687A69D31AFB60E4
:104280003A69FB689A4207D92F4B002283F8A02095
:10429000B86900F08FFA54E0B86900F08BFA002397
:1042A000FB620CE0BA6AFB6A1344BB627A6AFB6A7F
:1042B000D31A7B62B96A0120FFF762FFF8627A6A5B
:1042C000FB6A9A42EED200F0D9F9B8611E4B93F81E
:1042D000A130002B04D0B96A0020FFF751FFF8622B
:1042E000FB6AB3F1FF3F08D1174BD3F89C303B6218
:1042F000BA6A3B6A1344FB6111E0FA6A7B6AD31A1B
:104300003B62114BD3F89C303A6A9A4203D90E4B68
:10431000D3F89C303B62BA6A3B6A1344FB61F9698B
:10432000386AFFF713FF084B012283F8A220064BDF
:10433000002283F8A020044ABB6A9360B86900F0A9
:1043400039FA3037BD4680BDB08B002080B582B0D1
:1043500000AF7860044B9B6C1846FFF7C7FD00BFA9
:104360000837BD4680BD00BFB08B002080B586B049
:1043700000AFF860B9607A603B60FB687B61FB6806
:10438000002B01D1002324E0FFF73AFE3B68002B0D
:1043900001D1124B3B603B685A687B691A617B69AB
:1043A0007A689A607B69BA689A613B689A687B69A7
:1043B000DA617B6900221A757B6919460848FFF7A4
:1043C00036FB3B681B78002B02D0786900F00AF8B6
:1043D000FB6818461837BD4680BD00BF5C8C0020C6
:1043E000B08B002080B58AB000AF78607B683B62FC
:1043F00000F044F9F861002387F82730344B93F834
:10440000A230002B40D0324B93F8A03083F0010350
:10441000DBB2002B38D02E4BD3F890300121184658
:1044200000F03CFDB8612A4B9B68BA69D31A7B61E6
:10443000274BD3F89820264B9B68D31A3B617A69A7
:104440003B699A4220D8012387F827303B6A9A6853
:10445000BB691A443B6ADA603B6A01221A751C4B3D
:10446000D3F89830FB60FA68BB69D31ABB603B6A2B
:104470009B68BA689A4207D93B6A9A683B6ADB68CC
:1044800019461046FFF762FE97F8273083F00103C4
:10449000DBB2002B14D0FFF71BFEB8613B6A9A68B1
:1044A000BB691A443B6ADA603B6A01221A75084B01
:1044B00093F8A030002B03D0054B012283F8A120F4
:1044C000F86900F077F900BF2837BD4680BD00BF0E
:1044D000B08B002080B485B000AF78607B68FB6053
:1044E000FB6800221A7500BF1437BD465DF8047BD7
:1044F000704780B485B000AF786039607B68FB603E
:10450000FB683A689A6000BF1437BD465DF8047BCB
:10451000704790B585B000AF78607B68FB60FB6842
:104520001B7DDBB2002B06D0FB68DC68FFF7D0FDFB
:104530000346E31A01E0FB689B6818461437BD4642
:1045400090BD80B485B000AF78607B68FB60FB688D
:104550001B7DDBB218461437BD465DF8047B7047FF
:1045600080B483B000AF78607B68054A5A607B688E
:1045700000221A6000BF0C37BD465DF8047B70470F
:10458000006CDC0280B400AF0A231846BD465DF81B
:10459000047B704780B582B000AFFFF731FD00F0BB
:1045A0006DF87860074BD3F890300021184600F082
:1045B00075FC3860786800F0FDF83B6818460837ED
:1045C000BD4680BDB08B002080B588B000AFF860DC
:1045D000B9607A603B60FB68FB61FB68002B42D0EE
:1045E0003B68002B07D107F110033B6007F1100374
:1045F000184600F0B1F83B685B68DBB2FF2B02D1D4
:104600003B68C0225A601A4B1B68BA689A4206D0AF
:104610003B685B68E02B02D10023FB6023E0154977
:10462000BB68FA6941F82320FB697A685A603B68E5
:104630001A68FB699A60BA68FB691A60BB680E4920
:10464000184606F0FFF8BA683B685B68DBB21946AB
:10465000104606F013F93B681B7A002B03D0BB68A9
:10466000184606F021F9FB6818462037BD4680BD84
:10467000B0050020688C0020B146000080B582B0F3
:1046800000AF0A4B1B68DBB2002B04D100F054FFD3
:1046900000237B6005E02022EFF3118382F3118871
:1046A0007B607B6818460837BD4680BD04ED00E09E
:1046B00080B582B000AF0D4B1B68D3F8043DDBB270
:1046C0007B600B4A7B6852F823303B603B68002BD1
:1046D00007D03B685B683A6892681046984700F0DC
:1046E00019FF00BF0837BD4680BD00BFB4050020DC
:1046F000688C002080B582B000AF78607B68184677
:1047000006F0D2F800BF0837BD4680BD80B582B044
:1047100000AF06F069F878607B68002B0CBF0123BE
:104720000023DBB218460837BD4680BD80B483B095
:1047300000AF084B1B68DBB2002B02D10023FB71DA
:1047400001E00123FB71FB7918460C37BD465DF88B
:10475000047B704704ED00E080B483B000AF786064
:104760007B68002B09D07B6800221A607B684FF0C1
:10477000FF325A607B6801221A7200BF0C37BD46B7
:104780005DF8047B7047000080B483B000AF7860B0
:104790007B680F2B06DD7B68A3F11002044B1B68BE
:1047A000C3F8002F00BF0C37BD465DF8047B70478F
:1047B000B405002080B582B000AF7860074B1B685D
:1047C000DBB2002B02D100F0C9FE02E07B6883F36C
:1047D000118800BF0837BD4680BD00BF04ED00E072
:1047E00080B586B000AFF860B9607A60FB687B6125
:1047F000FFF744FF38617B69BA685A607B697A6861
:104800009A603869FFF7D6FF00BF1837BD4680BDF4
:1048100080B400AF30BF00BF00BFBD465DF8047B71
:104820007047000080B400AF054B1B68044A43F09A
:104830000503136000BFBD465DF8047B704700BFF1
:1048400010E000E080B400AF054B1B68044A23F081
:104850000103136000BFBD465DF8047B704700BFD5
:1048600010E000E080B58CB000AF05F0B5FFFEF7BA
:10487000F9F8034687F8273097F82730002B02D144
:1048800005F0AEFF71E005F095FE03F0C5FE38625D
:104890003B6A03F00403002B06D000E000BFFFF7E3
:1048A000B7FF00E000BF5EE03B6A03F00403002BAB
:1048B00059D1FFF725FCF861FA6913469B001344B0
:1048C0005B00BB612A4B1B687B617B694FF47A728A
:1048D00002FB03F33B61BA693B699A4204D2BB69AC
:1048E000FB62FB69BB6207E03B69FB623B69214AF3
:1048F000A2FB0323DB08BB620121012003F092FE2F
:104900000246FB6A93422ED9FFF79CFFBB6A183B15
:10491000BB62B96A1848FFF7ECFD1748FFF762FD64
:10492000FFF738FEF86000E000BF012004F048F80F
:1049300000E000BF1048FFF7CDFDFFF72BFEB86089
:10494000BA68FB68D21A13469B0013445B007B6075
:104950007B680A4AA2FB03239B097B607868FDF70A
:10496000BBFCFFF75FFF05F03BFF3037BD4680BD66
:10497000648D0020CDCCCCCCF0050020D34D62104E
:1049800080B500AFFDF75AFB00BF80BD80B500AF1A
:10499000FDF79AFB00BF80BD80B582B000AF7860A4
:1049A000044A7B68136003F04DFE00BF0837BD4624
:1049B00080BD00BF648D002080B483B000AF7860FC
:1049C0007B6803F00103002B02D00D4B01221A601B
:1049D0007B6803F00203002B03D0094B4FF4807275
:1049E0001A607B6803F00403002B03D0044B4FF4E0
:1049F00080321A6000BF0C37BD465DF8047B7047FB
:104A00000420094080B485B000AF78600023FB60CB
:104A10007B6803F00103002B04D0124B1B6803F0EA
:104A20000103FB607B6803F00203002B04D00D4BF5
:104A30001B6803F48073FB607B6803F00403002BA6
:104A400004D0084B1B6803F48033FB60FB68002B29
:104A500014BF01230023DBB218461437BD465DF8AE
:104A6000047B70470420094080B483B000AF7860B5
:104A70007B6803F00103002B05D0114B1B68104A23
:104A800043F0010313607B6803F00203002B05D0A1
:104A90000B4B1B680A4A43F4807313607B6803F076
:104AA0000403002B05D0064B1B68054A43F48033F2
:104AB000136000BF0C37BD465DF8047B704700BF34
:104AC0001420094080B483B000AF786039607B68FF
:104AD00003F00103002B02D00C4A3B6813607B6893
:104AE00003F00203002B02D0094A3B6813607B6885
:104AF00003F00403002B02D0064A3B68136000BF9A
:104B00000C37BD465DF8047B704700BF1820094094
:104B10001C2009402020094080B400AF034B1B68D3
:104B20001846BD465DF8047B704700BF3020094041
:104B300080B483B000AF78607B68054A07CA83E819
:104B4000070000BF0C37BD465DF8047B704700BF0F
:104B5000B805002080B58AB000AFF860B9607A600F
:104B6000FB687B62FB68002B65D0FFF787FD38622E
:104B7000334B1B7883F00103DBB2002B13D007F11A
:104B800014031846FFF7E8FD8023BB6107F1140307
:104B90002C4A14212C48FFF717FD2C4AFB681360A0
:104BA000274B01221A70386AFFF704FE7B68002B3E
:104BB00001D1274B7B607B681A787B6A1A707B680F
:104BC0005A687B6A9A607B6ABA68DA607B689B681D
:104BD0001A464FF000034FF000004FF000011100A3
:104BE00000201C4A4FF00003FBF78AFA02460B46EE
:104BF0007B6A5A607B6A5B681A464FF00003796AE9
:104C0000C1E90423796A4FF000024FF00003C1E9C3
:104C100006237B6A5B681A464FF00003796AC1E994
:104C200008237B6A5B681A464FF00003796AC1E982
:104C30000A2300F09FF8FB6818462837BD4680BD60
:104C4000708D00201D4E0000788D0020748D002096
:104C5000B805002040420F0080B586B000AF7860F4
:104C60007B683B613B69D3E904234FF0000047F6C2
:104C70009061FBF745FA02460B46C7E90223D7E9E4
:104C80000223012B08BF002A03D34FF0FF337B61BF
:104C900001E0BB687B617B6918461837BD4680BD63
:104CA00080B586B000AFF860B9601346FB71FFF7BE
:104CB00033FF7861BA687B69D31AB3F1004F03D927
:104CC0007B690433BB600DE07A69BB68D31A043397
:104CD000002B07DB7B690433BA689A4202D27B69F6
:104CE0000433BB60B9680120FFF7ECFE00BF183742
:104CF000BD4680BD2DE9F04389B000AF78603960D2
:104D00007B68FB610023FB76FB69D3E906453B68C2
:104D100018464FF00001FB69D3E9042302FB01FCB4
:104D200000FB03F66644A0FB0223F1180B4614EBCC
:104D3000020845EB0309C7E90489D7E904014FF0EC
:104D400000024FF00003020C42EA01420B0C134632
:104D5000FB60FB7E1A46F968F869FFF7A1FFF96965
:104D6000D7E90423C1E9082300BF2437BD46BDE8C5
:104D7000F083000080B582B000AF084B1B687B60F9
:104D80007B68002B06D07B681B78002B02D17868EB
:104D900000F006F800BF0837BD4680BD748D0020C6
:104DA00080B586B000AF78607B683B61FFF766FC3A
:104DB000F8603B695B68B3F5802F02D204237B6106
:104DC00003E03B695B681B0C7B61FFF7A5FE0246B5
:104DD0007B6913447B610120FFF7EEFD79690120B7
:104DE000FFF770FE2321002005F0CEFC0120FFF725
:104DF0003BFEF868FFF7DEFC00BF1837BD4680BDFC
:104E000080B582B000AF786005F0D6FC02460B4654
:104E1000104619460837BD4680BD000080B584B0F5
:104E200000AF78601B4B1B68FB601B4B1B68002BA3
:104E30000CD00220FFF7E6FD0346002B06D002202F
:104E4000FFF7BAFD144B1B6801209847124B5B68B3
:104E5000002B0CD00420FFF7D5FD0346002B06D015
:104E60000420FFF7A9FD0C4B5B6802209847012046
:104E7000FFF7C8FD0346002B08D00120FFF79CFD7B
:104E8000FB68DB68FA6892681046984700BF1037E5
:104E9000BD4680BD748D0020688D002080B588B02F
:104EA00000AF78600B46FB707B68FB61F869FFF729
:104EB000A7FFC7E90401FB69D3E90423D7E904018B
:104EC000FBF71EF902460B46C7E90223FB78002BCD
:104ED00017D0FB69D3E90423F96802FB01F0B96834
:104EE00003FB01F10144B868A0FB022319440B46FF
:104EF000C7E90423C7E90423F969D7E90423C1E911
:104F00000623BB6818462037BD4680BDB0B58AB0C1
:104F100000AF324B7B61324B3B617B691B6843F4D2
:104F200070027B691A6005F09BFF4FF0200383F34A
:104F30001188BFF36F8FBFF34F8F3B60294C3D4605
:104F400004E023461C1D4FF0A5321A60AC42F8D392
:104F5000254B7B62254BFB6005E07B6A00221A60D3
:104F60007B6A04337B627A6AFB689A42F5D3204BF2
:104F70003B62204BFB61204BBB603A6AFB699A4263
:104F80000ED009E03B6A1A68FB691A603B6A043379
:104F90003B62FB690433FB61FA69BB689A42F1D357
:104FA000164A174BD31A9B107B600023BB6107E0A6
:104FB000134ABB6952F823309847BB690133BB6180
:104FC000BA697B689A42F3D30E4A3B691A60FBF7D1
:104FD000F5FA00BF2837BD46B0BD00BF88ED00E040
:104FE00008ED00E020A00020C807002020A000203D
:104FF00038C2000030040020C4070020ECB80000D4
:10500000ECB800000000000040F20000C0F2000018
:1050100000688546FFF77ABF00BF80B400AFFEE7A7
:1050200080B400AFFEE780B400AFFEE780B400AF0D
:10503000FEE780B400AFFEE780B400AF00BFBD461E
:105040005DF8047B704780B584B000AF78607B6802
:10505000002B07D07B68083BFB60FB681B68184689
:10506000FEF790FB00BF1037BD4680BD80B582B013
:1050700000AF786039603868FFF7E5FF00BF083798
:10508000BD4680BDB0B483B000AF78607B68064A8F
:105090001C4615460FCD0FC42B682360002318460D
:1050A0000C37BD46B0BC7047C405002080B483B047
:1050B00000AF786039603B68002B04D03B68012B5F
:1050C00001D0162303E07B683A681A610023184672
:1050D0000C37BD465DF8047B704780B485B000AFE7
:1050E000786039603B681B68FB60FB68092B02D85D
:1050F000FB68002B01D1162303E07B68FA681A6075
:10510000002318461437BD465DF8047B704780B411
:1051100083B000AF786039607B683A689A6000239A
:1051200018460C37BD465DF8047B704780B58CB0DF
:1051300002AFF860B9607A603B6000237B620023B5
:105140003B62BB68002B01D0BB6800E0474BFB61B2
:105150003420FEF76DFA78627B6A002B01D10C23B4
:105160007FE0FB691B69002B14BF01230023DAB227
:105170007B6A1A747B6A7A685A617B6A3A689A61B8
:105180007B6A0022DA607B6A00229A607B6A0022D6
:10519000DA617B6A00221A62FB691A687B6A5A60CC
:1051A0007B6A00229A627B6A00221A637B6A1A6B0E
:1051B0007B6ADA62FB691B69002B10D10322002194
:1051C0000120FBF725FF02467B6A9A607B6A9B6899
:1051D000002B04D1786AFEF7D5FA0C2341E0FDF7E5
:1051E00043FD0346012B14BF01230023FB76FB7E06
:1051F000002B01D0FCF722FF1D49FB699B689BB285
:105200009B089AB2FB691B6818467B6A0193009061
:105210007B6A1848FCF75FFC78617B69012B07D13A
:105220007B6A1B687A6A11461846FDF799F90FE008
:105230007B6A9B68002B04D07B6A9B681846FCF74E
:105240008CFA786AFEF79EFA00237B620C233B629D
:10525000FB687A6A1A60FB7E002B01D0FCF734FFF2
:105260003B6A18462837BD4680BD00BFC4050020F4
:1052700034B900008B53000080B584B000AF786073
:1052800000F034F8F860FB687A685A6207F10803A6
:105290001946012000F039F805E0FB689B6A0121FE
:1052A000184600F059F8FB689B6A002BF5D1F868A6
:1052B00000F07FF8FB681B7C83F00103DBB2002B5E
:1052C0000AD0FB689868002300220021FBF70DFF3D
:1052D0000020FCF7DDFD05E0F868FEF753FA00203A
:1052E000FCF76EFD00BF1037BD4680BD80B582B0B3
:1052F00000AFFDF7A9FC78607868FDF74DF93860DC
:105300003B6818460837BD4680BD80B584B000AF05
:1053100078603960FFF7EAFFF8607B68002B04D003
:105320007B68012B01D0162312E0FB68DA693B6829
:105330001A60FB687A68DA617B68002B07D1FB682A
:105340001B6A002B03D04FF0FF30FFF795FF0023BF
:1053500018461037BD4680BD80B584B000AF786078
:1053600039607B681B68FB607B681A69FB689A621E
:105370003B68002B05D07B685B687A6892681046B2
:10538000984700BF1037BD4680BD80B584B000AFE0
:1053900078607B68FB60FB685B69FA68926910461D
:1053A0009847B860B868FFF767FF00BF1037BD4681
:1053B00080BD80B586B000AF78607B687B61FCF70C
:1053C0003DFE2FE07B69DB6A3B613B691A687B69C4
:1053D000DA623B691B69FB60FB685B68002B04D0E9
:1053E000FB685B68FA6812681A60FB681B68002B30
:1053F00004D0FB681B68FA6852685A603B699B6876
:10540000BB60BB681B68002B09D03B69DB68002BC5
:1054100005D0BB681B683A69D26810469847F8689F
:10542000FEF7B0F97B69DB6A002BCBD1FCF74CFEB1
:1054300000BF1837BD4680BD80B483B000AF786030
:10544000396000BF0C37BD465DF8047B7047000033
:1054500080B400AF104B4BF680321A600E4B1B68C5
:105460006FF07F42B2FBF3F30C4A13600C4B5E22E9
:105470001A600C4B00221A600B4B00221A600B4B77
:105480004BF67F321A60074B07221A6000BFBD46F9
:105490005DF8047B704700BFB0940020B4940020F6
:1054A000B894002010E000E018E000E014E000E014
:1054B00080B582B000AF00237B60094B1B68B3F15D
:1054C000FF3F02D000F078F9FEE700F075F900BF69
:1054D0007B68002BFCD000BF00BF0837BD4680BDF5
:1054E000D805002080B400AF084B1B68074A43F47E
:1054F00070031360064B1B68054A43F0404313607A
:1055000000BFBD465DF8047B704700BF88ED00E03A
:1055100034EF00E080B400AF064B4FF080521A60C9
:10552000BFF34F8FBFF36F8F00BFBD465DF8047BA5
:10553000704700BF04ED00E080B500AF00F03CF91B
:10554000054B1B680133044A1360BFF34F8FBFF351
:105550006F8F00BF80BD00BFD805002080B500AFB1
:105560000A4B1B68002B02D100F026F9FEE7074B1F
:105570001B68013B054A1360044B1B68002B02D1DA
:10558000002000F026F900BF80BD00BFD805002034
:1055900080B582B000AF00F00FF97860FCF7DEFE56
:1055A0000346002B03D0054B4FF080521A607868F9
:1055B00000F00FF900BF0837BD4680BD04ED00E0E4
:1055C00080B584B000AF78607B689B69FB60FB6846
:1055D000023B1B78FB72FB7A022B04D1FFF782FFA0
:1055E00000F0B6F802E000F0E7F8FEE700BF103781
:1055F000BD4680BD80B485B000AFF860B9607A6008
:105600003B60FB68043BFB60FB684FF080721A60F4
:10561000FB68043BFB607A68FB681A60FB68043B2C
:10562000FB60384AFB681A60FB68043BFB60FB6860
:105630004FF012321A60FB68043BFB60FB684FF0CE
:1056400003321A60FB68043BFB60FB684FF00232D8
:105650001A60FB68043BFB60FB684FF001321A6084
:10566000FB68043BFB603A68FB681A60FB68043B1C
:10567000FB60FB684FF011321A60FB68043BFB6073
:10568000FB684FF010321A60FB68043BFB60FB685C
:105690004FF009321A60FB68043BFB60FB684FF077
:1056A00008321A60FB68043BFB60FB684FF007326E
:1056B0001A60FB68043BFB60FB684FF006321A601F
:1056C000FB68043BFB60FB684FF005321A60FB6827
:1056D000043BFB60FB684FF004321A60FB68043B3C
:1056E000FB60FB686FF002021A60FB68043BFB6022
:1056F000BA68FB681A60FB6818461437BD465DF847
:10570000047B7047B154000080B500AF0C4B1B68A0
:105710000B4A43F47F031360094B1B68084A43F0AC
:105720007F431360FFF794FE064B00221A6000F0DF
:105730002FF8FCF74BFFFFF7BBFE0023184680BD98
:1057400020ED00E0D805002000000000000000006F
:105750000B4A1168086806C881F30B88022181F39F
:105760001488203080F30988BFF36F8F4FF000005A
:1057700080F31188104700BFAFF30080AFF30080C3
:10578000A409002000BF00BF0000000000000000CE
:1057900007480068006880F3088862B661B6BFF306
:1057A0004F8FBFF36F8F02DF00BF00BFAFF30080EA
:1057B00008ED00E000BF00BFEFF311804FF02001C3
:1057C00081F31188BFF34F8FBFF36F8F704700BF16
:1057D000184680F31188BFF34F8FBFF36F8F704768
:1057E00000BF0000000000000000000000000000FA
:1057F000EFF309801EF0100F08BF20ED108AEFF3C1
:105800000B82734620E9FC0F114A116808604FF0C3
:10581000200080F31188BFF34F8FBFF36F8FFCF729
:10582000D5FE4FF0000080F31188094A116808681E
:10583000B0E8FC0F13F0100F08BFB0EC108A82F331
:105840000B8880F309881847AFF30080AFF300801E
:10585000A409002000BF00BF0000000000000000FD
:105860001EF0040F0CBFEFF30880EFF3098004492A
:10587000084700BFAFF30080AFF30080AFF30080B4
:10588000C155000000BF00BF2DE9B043A6B002AF74
:10589000786007F15403184602F036F9C149062032
:1058A00002F06AFCBF49072002F066FC00210620D6
:1058B00002F03CFD0021072002F038FD07F1300323
:1058C000184603F02DFC4FF4E133BB64002387F846
:1058D0003130002387F8303007F1300319460020BB
:1058E00003F06AFFF867FB6F002B04D1012106204B
:1058F00002F01CFDFEE72023009302235822AA4950
:10590000AA48FAF7A1FD0346002B08D00121072081
:1059100002F00CFD0121062002F008FDFEE7A44B79
:105920001E22DA73A24BA34A5A61A14A137B0221B9
:1059300061F3030313739E4A137B43F080031373D5
:105940009B4B00229A609A4B9B4A5A60984A537B21
:10595000022161F303035373974B944ADA61964A29
:10596000D37B43F00103D373934AD37B43F0020309
:10597000D373914B1E221A758F4A937B6FF34103A9
:1059800093738D4A937B6FF3820393738A4B8B4A95
:105990001A62894AD37D072161F30303D375864BCD
:1059A000874A9A6107F15403864A8749874802F07B
:1059B000B7F80346864A1360854B18684FF000021B
:1059C0004FF00003CDE9002300230022814901F0BC
:1059D000A5FF01F0E9F9C7F88C000F2002F0B6FB33
:1059E0000346002B0CBF0123002387F87B3097F878
:1059F0007B3083F00103DBB2002B00D015E10023E4
:105A00007B6107F1180300221A605A609A60DA601D
:105A10001A615A61704A07F1080307CA03C31A8062
:105A20000233120C1A7007F1080100230B22F86FE1
:105A300003F024FE07F1140100231C22F86F03F089
:105A4000A9FC07F114031846FAF7D4FC024607F143
:105A500014010023F86F03F011FE604B1B881B0A32
:105A60009BB2DAB2534B1A705C4B1B885A1C91B232
:105A70005A4A1180DAB24F4B5A7007F114031C22B4
:105A80001946574805F01EFFD7F88C3003F57413FC
:105A900003F51063C7F88C30454AD7F88C30936013
:105AA0004FF000024FF00453C7E920230DE0484BAC
:105AB00018684C4A4FF00003CDE900234A4B0022FE
:105AC0003B4902F00FF8C7E92001D7E920234FF046
:105AD00000004FF0005102EA000403EA010554EA15
